:020000040000FA
:1000000018F09FE518F09FE518F09FE518F09FE5C0
:1000100018F09FE50000A0E1F0FF1FE518F09FE554
:1000200040000000541B0000501B00004C1B00004F
:10003000481B000000000000441B0000401B0000A3
:10004000BC009FE50110A0E3001080E5B4009FE52F
:10005000AA10A0E35520A0E32430A0E3043080E5FB
:100060000130A0E3003080E50C1080E50C2080E535
:10007000083090E5013B13E2FCFFFF0A0330A0E3E8
:10008000003080E50C1080E50C2080E578009FE5CD
:100090000410A0E3041080E50210A0E3001080E546
:1000A00068009FE5DBF021E300D0A0E1040040E21E
:1000B000D7F021E300D0A0E1040040E2D1F021E339
:1000C00000D0A0E1040040E2D2F021E300D0A0E1A2
:1000D000800040E2D3F021E300D0A0E1040040E240
:1000E00010F021E300D0A0E124009FE5010010E31F
:1000F00020E09F0520E09F1510FF2FE1FEFFFFEAA3
:10010000FEE7C04600C11FE080C01FE000C01FE046
:100110009004004061130000FC0000000101000099
:0E01200053573120707265737365640D0A00C9
:0E01300053573220707265737365640D0A00B8
:0E01400053573320707265737365640D0A00A7
:0E01500053573420707265737365640D0A0096
:10016000120100010000004051C2051310010420DB
:100170004A0109024500020100A0320904000003FF
:10018000FFFFFF000705810304002007050202406E
:100190000020070582024000200904010003FFFF40
:1001A000FF00070584030400200705050240002026
:1001B0000705850240002000040309041C034E00CB
:1001C00065007800200052006F0062006F0074002C
:1001D00069006300730020002A034C0050004300B4
:1001E00032003100340038002000560069007200EF
:1001F0007400750061006C00200043004F004D004A
:1002000020001C033000300030003000300030008F
:10021000300030002D00440045004D004F000A031F
:10022000560043004F004D0090040040F104004090
:10023000F4040040F6040040F80400403F0600408B
:100240000000000000000000F804004038050040F5
:10025000A10900004D16000051160000751600009F
:10026000791600007D16000000000000000000006C
:10027000000000000000000000000000000000007E
:10028000000000000000000000000000000000006E
:10029000000000000000000000B51D4A1D48016874
:1002A000114001601C4A1B480168114301601B4A50
:1002B0001B4801681143016023211A480160012194
:1002C00019480160AA2119480160552117480160A9
:1002D0001748006817490842FAD003211248016004
:1002E000AA211248016055211048016012491348A3
:1002F000016036211248016012491348016008214B
:100300001248016000F03EF8002000F07BF800BDCC
:10031000FF3FFF3F04C002E000400080000000807B
:10032000C4C01FE0A4C01FE0A0C01FE0ACC01FE01D
:10033000A8C01FE000040000B406000000F1FFFFA9
:1003400000F2FFFF0000400010F0FFFF040009E092
:1003500000B5011C081C002801D0012100E000218B
:10036000090403480143034800F0C8FA00BDC04631
:10037000000100000005FE0000C09FE51CFF2FE10A
:100380008503000000210D48016040210C480160F8
:1003900001220A4802600A4801600A4800680A49C6
:1003A0000842FAD009490A4801600A4801600A482F
:1003B00001600C21094801607047C046480009E00F
:1003C0004C0009E0000009E000010000FFFFFFFF12
:1003D000380009E0340009E0080009E0040009E001
:1003E00000C09FE51CFF2FE1ED0300007047C046F1
:1003F00000C09FE51CFF2FE1FD0300007047C046D1
:100400007047C04600B5031C181C0106090E802069
:100410000143090408480143084800F06FFA181C1A
:100420000106090E802001430904034801430348E3
:1004300000F064FA00BDC046000100000005D000D5
:1004400000B5011C081C002801D0012100E000219A
:10045000090408480143084800F050FA03210748FE
:1004600001600748006803490842FAD00548016066
:1004700000BDC046000100000005D800440009E0AE
:10048000000009E0080009E010B5041C201C807879
:1004900000F010FA011C01238B400C490A681A4332
:1004A0000A60011C0A480160211C043108784A785E
:1004B00012021043011C0748016007480068074901
:1004C0000842FAD00648016010BDC046440009E069
:1004D000480009E04C0009E0000009E000010000CC
:1004E000080009E07047C04600B5011C081C000662
:1004F000000E00F0DFF9000402490843024900F051
:10050000FDF900BD000540000001000000B5011C20
:10051000081C0006000E00F0CDF900040249084353
:10052000024900F0EBF900BD000540000001200089
:1005300000B5011C081C0006000E00F0BBF9000409
:1005400002490843024900F0D9F900BD0005400006
:100550000001000000B5011C081C0006000E00F0A0
:10056000A9F9000402490843024900F0C7F900BD97
:10057000000540000001010000B5011C081C000638
:10058000000E00F097F9000402490843024900F008
:10059000B5F900BD000540000001000070B5031C66
:1005A000181C0206120E0F20024092000120024386
:1005B0001748026017480468201C174A1042F9D0F7
:1005C0001648044000200BE0154A16680D1C2E70DA
:1005D000360A6E70360AAE70360AEE70043101309B
:1005E000251C0335AD08021CAA42EDD300210848A2
:1005F0000160181C0006000E00F05CF900040949B7
:10060000084300F069F9084800F066F9201C70BD45
:10061000280009E0200009E000080000FF030000B6
:10062000180009E0000500000005F20070B5141C78
:10063000031C181C0206120E0F200240920002201A
:10064000024317480260221C1648026000250EE093
:100650000E1C3278707800020243B0780004024326
:10066000F078000602431048026004310135221C74
:1006700003329208281C9042EAD300210848016006
:10068000181C0006000E00F015F900040749084385
:1006900000F022F9064800F01FF9201C70BDC0468A
:1006A000280009E0240009E01C0009E00005000022
:1006B0000005FA00FF5F2DE904D04DE2CC019FE573
:1006C000005090E50500A0E1080010E31700000AC3
:1006D000BC019FE57C0000EBB8019FE5940000EBB6
:1006E0000040A0E10400A0E1100010E30200000AB5
:1006F00020FFFFEB3A0300EB5B0000EA0400A0E1FF
:10070000080010E30600000A0400A0E1040010E362
:100710000100000A31FFFFEB530000EA33FFFFEB5B
:10072000510000EA0400A0E1020010E34E00001AAC
:100730000500A0E1040010E34B00000A450000EAB8
:100740000060A0E30600A0E10110A0E31110A0E109
:1007500000009DE5010000E0000050E33900000AC0
:100760000670A0E1A770A0E10600A0E10110A0E3DF
:100770001110A0E120019FE5001080E50C019FE52C
:10078000000090E5200010E3FBFFFF0A0C019FE54D
:10079000004090E52010A0E304019FE5001080E5F3
:1007A0000600A0E1010010E31B00001A0600A0E112
:1007B000000050E30C00001A0400A0E1040010E364
:1007C0000900000ADC009FE5000090E5000050E30E
:1007D0000500000A0100A0E3C8109FE5001091E5A4
:1007E0000FE0A0E111FF2FE1160000EA0720A0E1D1
:1007F0000221A0E1AC009FE5020090E7000050E379
:100800001000000A0200A0E398109FE5021091E793
:100810000FE0A0E111FF2FE10A0000EA0720A0E1AC
:100820000221A0E17C009FE5020090E7000050E378
:100830000400000A0300A0E368109FE5021091E79E
:100840000FE0A0E111FF2FE1016086E20600A0E1C8
:10085000200050E3BAFFFF3A4C009FE5000090E50E
:1008600000008DE5000050E3B4FFFF1A0510A0E181
:100870002C009FE5001080E50010A0E32C009FE510
:10088000001080E504D08DE2FF5FBDE804F05EE279
:10089000000009E00005FE000002FE00380009E04B
:1008A000140009E0080009E0F8040040300009E005
:1008B00030F0FFFF031C191C0F2001404900181CD9
:1008C0008022104200D00131081C704700C09FE513
:1008D0001CFF2FE1D9080000011C054801600548F4
:1008E000006810210842FAD0034801607047C046F2
:1008F000100009E0000009E0080009E00A1C011CE2
:10090000094801600948006810210842FAD00848E7
:100910000160111C0448016004480068102108426D
:10092000FAD0034801607047100009E0000009E0B8
:10093000080009E000C09FE51CFF2FE1410900000D
:1009400020220B490A60011C0A4801600A4800681D
:1009500010210842FAD006480160074800682022AA
:100960001042FAD00548016801480260081C70472F
:10097000080009E0100009E0000009E0140009E0A7
:1009800000200549088200208876C8760348086060
:10099000002048607047C0469004004001000100FC
:1009A000F0B5011C86B0081C022801D100F038FC0B
:1009B000032801D100F04BFC062801D100F06AFCAD
:1009C000072801D100F062FC012801D000F065FC8D
:1009D00000F076FCE2480078C009012108400006DA
:1009E000000EFFF77FFDDF4A1178507800020143C7
:1009F000DD480180DA4800784009032108400128D9
:100A000001D100F006FC022800D1ECE3002801D05F
:100A100000F0FFFBD548007801287DD0032800D1E5
:100A2000F7E0052800D171E1062800D181E107280F
:100A300000D106E2082800D10AE2092800D114E218
:100A40000A2800D1ECE20B2800D106E3002800D0F0
:100A5000DFE3C34800781F210840012809D002289D
:100A60001ED000284ED1C249C248016000F030FCBF
:100A70004BE0C148007800280FD0C0480078011C26
:100A8000BF480078884208D20021BE480180BD4995
:100A9000B848016000F01CFC37E00020009036E010
:100AA000B7480078031C8F200340181C802108429F
:100AB00003D0181CB44A824002E0181C0122824074
:100AC000AD480078002803D1181C0F21084216D128
:100AD000111CAE4800680840002810D0111CAC481A
:100AE00000680840002801D0012100E00021A5484D
:100AF0000180A4499F48016000F0EAFB05E0002066
:100B0000009004E00020009001E001200090009897
:100B1000002800D17DE3C0E30027914800781F2121
:100B20000840012824D0022825D0002865D1994901
:100B300008784A7812021043012816D1381C002880
:100B400009D00120FFF75CFC89480188022001439D
:100B50008748018054E00020FFF752FC8448018858
:100B60008D480140824801804AE00020009049E021
:100B70000020009046E082480078061C8F20064046
:100B8000301C8021084203D0301C7F4D854002E09C
:100B9000301C012585407848007800282AD0301C78
:100BA0000F21084226D0291C7848006808400028F8
:100BB00020D0784908784A7812021043002816D1CC
:100BC000381C002809D0301CFFF7C4FC281C7049D1
:100BD000096801436E48016012E0301CFFF7CCFC4D
:100BE000281C6B49096881436948016008E00020BE
:100BF000009007E00020009004E00020009001E059
:100C0000012000900098002800D102E300F098FB3A
:100C100043E30127524800781F210840012824D0CF
:100C2000022825D0002865D15A4908784A7812024E
:100C30001043012816D1381C002809D00120FFF7E5
:100C4000DFFB4B480188022001434948018054E002
:100C50000020FFF7D5FB464801884F480140444833
:100C600001804AE00020009049E00020009046E02A
:100C700043480078061C8F200640301C8021084223
:100C800003D0301C404D854002E0301C01258540DA
:100C90003948007800282AD0301C0F21084226D07D
:100CA000291C3A4800680840002820D039490878B3
:100CB0004A7812021043002816D1381C002809D0A7
:100CC000301CFFF747FC281C3149096801433048B4
:100CD000016012E0301CFFF74FFC281C2C4909680A
:100CE00081432B48016008E00020009007E00020CD
:100CF000009004E00020009001E0012000900098A6
:100D0000002800D185E200F01BFBC6E21448007801
:100D10001F210840002800D07BE21E480078011CFB
:100D2000802001430906090E1C48017000F008FBF1
:100D3000B3E20B4800781F210840012869D0002841
:100D40006AD11748007802282ED0032853D00128F2
:100D50005CD1144907480160122002905FE0C04650
:100D6000A2040040A80400409C040040A3040040EA
:100D7000A004004098040040AB040040F004004090
:100D8000A6040040B00400400000010090040040B0
:100D900094040040A4040040FDFF0000AA040040A9
:100DA000A504004060010000D948019000200CE03B
:100DB00001990A78002A07D00B1C02331A785D7853
:100DC0002D022A43891801910130D24909780A1C61
:100DD000011C9142ECD101990878002802D1002031
:100DE000009029E0CC480160023108784A7812026C
:100DF0001043029013E0C7480078C8490918C64854
:100E00000160C54801680878029008E00020009061
:100E100012E0002000900FE0002000900CE0C0489D
:100E200000880299884203D90904090CBC48018052
:100E300000F04EFA012000900098002800D1E8E16F
:100E40002BE20020FFF786FB0021B548018024E259
:100E5000B44800781F210840002800D0D9E1B249E9
:100E6000AD48016000F034FA17E2AE4800781F2167
:100E70000840002800D0CCE1A6480078002800D126
:100E800090E0A34D88E0281C407804285BD005281A
:100E90005DD002287DD1281C40799E49097888427E
:100EA00049D19C480178A0480170281C01799F48CD
:100EB000017000240020221C9D4988540134201C0C
:100EC0000428F7D30124201C01218140994800689F
:100ED0000840002802D0201CFFF718FB201C964970
:100EE0008140944800680840002804D0201C8021DC
:100EF0000843FFF70BFB0134201C1028E3D38F4974
:100F00008C48016000218E4801600120FFF798FAAB
:100F1000281CC0794021084206D08A480188012057
:100F200001438848018034E08648018886480140B2
:100F3000844801802DE0291C023108784A78120289
:100F400010432D1828E0281CC078019021E001985A
:100F500000281ED1281C8078041C8F200440201CEF
:100F60008021084203D0201C734E864002E0201CE2
:100F700001268640301C6F49096801436D480160B5
:100F8000281CFFF781FA201CFFF7AEFA201CFFF7A0
:100F9000CFFA291C08782D18281C0078002800D0CA
:100FA00071E728E00021604801700124201C012124
:100FB0008140604800680840002802D0201CFFF7EC
:100FC000A5FA201C5C4981405A4800680840002866
:100FD00004D0201C80210843FFF798FA0134201C1C
:100FE0001028E3D35549534801600021544801605B
:100FF0000020FFF725FA47480078011C4A4800788E
:10100000884202D10120009001E000200090009869
:10101000002800D1FDE000F093F900F055FB3CE121
:10102000404800781F210840012800D0F1E03E48E8
:101030000078002800D1ECE03C480078011C4348CF
:101040000078884200D3E4E0404800783849091825
:101050003148016000F03CF91FE1324800781F215F
:101060000840012800D0D4E02F480078002802D1A1
:1010700000200090B1E000200590254DA6E0281C3E
:101080004078042813D005282ED0022800D09AE0FA
:10109000281C407924490978884200D193E0291C12
:1010A000023108784A78120210432D188EE0281C6D
:1010B00080780190281CC07802900020049023487A
:1010C0000078019A82427ED112480078011C029871
:1010D000884278D1012105911549895C0391000668
:1010E000000E134988546EE018480078011C0198DE
:1010F000884268D1281C8078061C8F200640301C4E
:101100008021084224D0301C0B4F874023E0C0468A
:1011100072010000A404004098040040B8010000DF
:101120009C040040A2040040AB040040F0040040D6
:10113000AC040040900400400000010001000100E8
:1011400094040040A0040040FEFF0000A6040040FC
:10115000301C0127874053480078011C02988842C0
:1011600019D1381C5049096801434F480160381CA7
:101170004E49096881434D480160281CFFF784F9F6
:10118000301CFFF7B1F9301CFFF7D2F9391C049875
:101190000843049017E003990298884213D1391C40
:1011A0000498084000280ED1381C3F490968814343
:1011B0003D480160381C3D49096881433B48016056
:1011C000301CFFF7A3F9291C08782D18281C00787B
:1011D000002800D053E7059800900098002818D008
:1011E00000F0AEF859E032480078011CFF200140C1
:1011F0000906090E2B480278081C0006000E111C77
:101200000906090E00F09AFA002802D000F060F8F2
:1012100043E08020FFF79EF90021264801803CE052
:1012200025480078C009012108400006000E00286A
:101230000AD12048008800282FD000F06BF81D4804
:101240000088002829D1E4E700F082F825E01A4858
:101250000078C009012108400006000E012806D1CF
:1012600014480088002818D000F032F815E0134820
:101270000178081C802210420FD07F2001400F48C7
:1012800001700E480078FFF7BDF806E08020FFF7F8
:1012900073F902E00020FFF76FF906B0F0BC08BC5C
:1012A0001847C046A4040040900400409404004045
:1012B000A30400409C040040A2040040AA04004093
:1012C00000B502490020FFF769F900BDA204004003
:1012D00030B50E480088011C402901D9402400E0A7
:1012E000041C0B4D2968221C8020FFF79FF9041C69
:1012F000211C286840182860221C1204120C281C8B
:1013000004300188891A018030BDC0469C04004029
:101310009804004010B5094C21680020FFF73EF901
:10132000021C216889182160021C1204120C201C66
:1013300004300188891A018010BDC046980400401D
:1013400000B5002180200022FFF770F900BDC046E3
:1013500000B502490020FFF721F900BDB0040040AC
:101360001A4806C80B1C134305D000230B70491CF8
:101370009142FBD1F5E71648C01C0323984306C8E9
:101380000B1C134306D00378401C0B70491C914280
:10139000F9D1F1E700B50F490F48016000F0A4F959
:1013A000FEF77AFF0120FEF7D3FF0C4800780028F3
:1013B00003D10B4800780028F7D0002000F080F817
:1013C000012000F07DF8F0E700BDC04628020000D3
:1013D0004802000000000F00188002E03B050040BA
:1013E0003C05004000C09FE51CFF2FE1F113000009
:1013F00000B5FFF7C5FA08BC1847C04670B5061C13
:10140000301C0006000E00283BD1244D291C022070
:10141000FFF7C4F8041C281C0078322810D03328A9
:1014200019D0342822D0312836D11D4800681D49F2
:10143000084202D01C4801602EE01C4801602BE0ED
:10144000174800681A49084202D01748016023E093
:101450001648016020E0124800681649084202D090
:101460001148016018E01148016015E00C4800685F
:101470001149084202D00C4801600DE00B480160A0
:101480000AE0301C0006000E012805D10B4D291C76
:101490000520FFF783F8041C70BDC0463F050040DF
:1014A000108002E0000001001C8002E0148002E0D5
:1014B0000000020000000400000008007F0500405A
:1014C00030B590B0564900A80E220B780370491C25
:1014D000401C521EF9D1534904A80E220B78037008
:1014E000491C401C521EF9D14F4908A80E220B7806
:1014F0000370491C401C521EF9D14C490CA80E2205
:101500000B780370491C401C521EF9D148480068F2
:10151000484908421CD148480078002818D10120C9
:10152000454D287000AB181C00F01CFB0406240E6F
:10153000201C0206120E4148191C00F023FB201C3F
:101540000206120E3D498220FFF770F80020287035
:10155000374800683A4908421CD1374800780028CB
:1015600018D10120344D287004AB181C00F0FAFA91
:101570000406240E201C0206120E3048191C00F02E
:1015800001FB201C0206120E2C498220FFF74EF8A8
:1015900000202870264800682A4908421CD12648A5
:1015A0000078002818D10120234D287008AB181CA2
:1015B00000F0D8FA0406240E201C0206120E1F4862
:1015C000191C00F0DFFA201C0206120E1B498220B3
:1015D000FFF72CF800202870154800681A490842C7
:1015E0001CD115480078002818D10120124D287010
:1015F0000CAB181C00F0B6FA0406240E201C0206E0
:10160000120E0E48191C00F0BDFA201C0206120E24
:101610000A498220FFF70AF80020287010B030BD78
:1016200020010000300100004001000050010000D6
:10163000008002E00080000038050040BF05004047
:101640000020000000100000000000407047C0466D
:1016500000B5011C081C022805D0032806D1012171
:101660000348017002E00020FFF7C8FE08BC1847DD
:101670003B0500407047C0467047C04600B5011C9E
:10168000081C022805D0032806D101210348017057
:1016900002E00120FFF7B2FE08BC18473C050040FD
:1016A0007047C0467047C0467047C0467047C04646
:1016B0007047C0467047C0467047C0467047C04636
:1016C0007047C0467047C04605480078002805D0DE
:1016D0000120044948700870C87088707047C0467F
:1016E000AB0400403905004010B40C490C480160BF
:1016F00083240C48047061230B48037003220948BB
:1017000002700721094801700948047009480370F4
:10171000074802700848017010BC704705000500BA
:1017200000C002E00CC000E000C000E008C000E023
:101730000C0001E0000001E0080001E030B50D1CE4
:10174000011C081C0006000E2022104201D10024BA
:1017500000E00124DF200140081C042818D00528DF
:101760001FD0062826D007282DD0082834D00928D5
:101770003BD00B284AD00C2840D0032844D1201C51
:101780000006000E291C0906090E00F041F83DE094
:10179000201C0006000E291C0906090E00F0E8F8BE
:1017A00034E0201C0006000E291C0906090E00F07A
:1017B00019F92BE0201C0006000E291C0906090E51
:1017C00000F048F922E0201C0006000E291C090642
:1017D000090E00F079F919E0201C0006000E291C02
:1017E0000906090E00F072F910E0201C0006000E38
:1017F000291C0906090E00F085F907E0201C0006E7
:10180000000E00F09BF901E0002000E0012030BD57
:1018100010B4021C101C0006000E002848D107233B
:101820004B48037080244B48037823430370081C03
:101830000006000E012806D120234748037000232C
:10184000464803702EE0081C0006000E022806D150
:1018500041234148037000234048037022E0081CE4
:101860000006000E032806D161233B4803700023C5
:101870003A48037016E0081C0006000E062806D140
:10188000C323354803700023344803700AE0081C62
:101890000006000E0C2805D186232F480370012373
:1018A0002E4803707F242B480378234003704CE0BC
:1018B000101C0006000E012847D10722284802709C
:1018C0008023284802781A430270081C0006000E84
:1018D000012806D1202224480270002223480270E9
:1018E0002EE0081C0006000E022806D141221E48E8
:1018F000027000221D48027022E0081C0006000E43
:10190000032806D16122184802700022174802708D
:1019100016E0081C0006000E062806D1C322124855
:1019200002700022114802700AE0081C0006000E36
:101930000C2805D186210C48017001210B4801704B
:101940007F22084801781140017010BC7047C046E2
:1019500008C000E00CC000E000C000E004C000E0EF
:10196000080001E00C0001E0000001E0040001E0DB
:1019700010B4031C181C0006000E002813D11748D1
:101980000078021CFB2002401206120E081C000602
:10199000000E8000141C2406240E04432406240E8A
:1019A0000E48047017E0181C0006000E012812D122
:1019B0000B480078021CFB2002401206120E081C85
:1019C0000006000E8000111C0906090E01430906DD
:1019D000090E0348017010BC7047C0460CC000E0FF
:1019E0000C0001E010B4031C181C0006000E0028B7
:1019F00012D116480078021CFC2002401206120E7A
:101A0000081C0006000E141C2406240E04432406A1
:101A1000240E0E48047016E0181C0006000E012863
:101A200011D10B480078021CFC2002401206120E55
:101A3000081C0006000E111C0906090E01430906C8
:101A4000090E0348017010BC7047C0460CC000E08E
:101A50000C0001E010B4031C181C0006000E002846
:101A600013D117480078021CCF2002401206120E34
:101A7000081C0006000E0001141C2406240E04435A
:101A80002406240E0E48047017E0181C0006000EF1
:101A9000012812D10B480078021CCF200240120608
:101AA000120E081C0006000E0001111C0906090E8A
:101AB00001430906090E0348017010BC7047C04677
:101AC0000CC000E00C0001E07047C046021C101C76
:101AD0000006000E012811D109480078021CFE20E2
:101AE00002401206120E081C0006000E111C090608
:101AF000090E01430906090E014801707047C046EE
:101B0000100001E0021C101C0006000E012812D17A
:101B100009480078021CFD2002401206120E081C23
:101B20000006000E4000111C0906090E01430906BB
:101B3000090E014801707047100001E07047C0466F
:101B4000FEFFFFEAFEFFFFEAFEFFFFEAFEFFFFEAFD
:101B5000FEFFFFEAFEFFFFEA00C09FE51CFF2FE14A
:101B6000651B0000002100E00131021C01301278E9
:101B7000002AF9D1081C704700C09FE51CFF2FE127
:101B8000851B000030B4031C181C05E00C1C2578D4
:101B9000041C257001310130141C013A002CF5D1D0
:081BA000181C30BC7047C04660
:00000001FF
